{
  "contractName": "EIP712Sig",
  "abi": [
    {
      "constant": true,
      "inputs": [],
      "name": "EIP712_DOMAIN_HASH",
      "outputs": [
        {
          "name": "",
          "type": "bytes32"
        }
      ],
      "payable": false,
      "stateMutability": "view",
      "type": "function"
    },
    {
      "inputs": [
        {
          "name": "domainName",
          "type": "string"
        },
        {
          "name": "domainVersion",
          "type": "string"
        }
      ],
      "payable": false,
      "stateMutability": "nonpayable",
      "type": "constructor"
    }
  ],
  "bytecode": "0x608060405234801561001057600080fd5b506040516103543803806103548339810180604052604081101561003357600080fd5b81019080805164010000000081111561004b57600080fd5b8281019050602081018481111561006157600080fd5b815185600182028301116401000000008211171561007e57600080fd5b5050929190602001805164010000000081111561009a57600080fd5b828101905060208101848111156100b057600080fd5b81518560018202830111640100000000821117156100cd57600080fd5b505092919050505060405160200180807f454950373132446f6d61696e2800000000000000000000000000000000000000815250600d01807f737472696e67206e616d652c0000000000000000000000000000000000000000815250600c01807f737472696e672076657273696f6e2c0000000000000000000000000000000000815250600f01807f6164647265737320766572696679696e67436f6e747261637400000000000000815250601901807f29000000000000000000000000000000000000000000000000000000000000008152506001019050604051602081830303815290604052805190602001208280519060200120828051906020012030604051602001808273ffffffffffffffffffffffffffffffffffffffff1673ffffffffffffffffffffffffffffffffffffffff1681526020019150506040516020818303038152906040526040516020018085815260200184815260200183815260200182805190602001908083835b602083101515610262578051825260208201915060208101905060208303925061023d565b6001836020036101000a038019825116818451168082178552505050505050905001945050505050604051602081830303815290604052805190602001206000819055505050609e806102b66000396000f3fe608060405260043610603f576000357c0100000000000000000000000000000000000000000000000000000000900463ffffffff168063e306f779146044575b600080fd5b348015604f57600080fd5b506056606c565b6040518082815260200191505060405180910390f35b6000548156fea165627a7a72305820e27f95443ab27a8dacfd305a5c0fe0ba3dc08c95af1dabef7d1feef584a04aa10029",
  "source": "/* \n* Modified version of the original provided by 0x\n* Changes:\n* - Supports Solidity 0.5.0\n* - Passes through domainName and domainVersion in constructor\n* See license at bottom of file \n*/\n\npragma solidity 0.5.0;\n\ncontract EIP712Sig {\n\n  // EIP191 header for EIP712 prefix (https://eips.ethereum.org/EIPS/eip-191)\n  string constant internal EIP191_HEADER = \"\\x19\\x01\";\n\n  // Hash of the EIP712 Domain Separator Schema\n  bytes32 constant internal EIP712_DOMAIN_SEPARATOR_SCHEMA_HASH = keccak256(\n    abi.encodePacked(\n      \"EIP712Domain(\",\n      \"string name,\",\n      \"string version,\",\n      \"address verifyingContract\",\n      \")\"\n    )\n  );\n\n  // Hash of the EIP712 Domain Separator data\n  // solhint-disable-next-line var-name-mixedcase\n  bytes32 public EIP712_DOMAIN_HASH;\n\n  constructor(\n    string memory domainName,\n    string memory domainVersion\n  ) public {\n    \n    EIP712_DOMAIN_HASH = keccak256(\n      abi.encodePacked(\n        EIP712_DOMAIN_SEPARATOR_SCHEMA_HASH,\n        keccak256(bytes(domainName)),\n        keccak256(bytes(domainVersion)),\n        abi.encode((address(this)))\n      )\n    );\n  }\n\n  /// @dev Calculates EIP712 encoding for a hash struct in this EIP712 Domain.\n  /// @param hashStruct The EIP712 hash struct.\n  /// @return EIP712 hash applied to this EIP712 Domain.\n  function hashEIP712Message(bytes32 hashStruct)\n    internal\n    view\n    returns (bytes32 result)\n  {\n    bytes32 eip712DomainHash = EIP712_DOMAIN_HASH;\n\n    // Assembly for more efficient computing:\n    // keccak256(abi.encodePacked(\n    //     EIP191_HEADER,\n    //     EIP712_DOMAIN_HASH,\n    //     hashStruct    \n    // ));\n\n    assembly {\n      // Load free memory pointer\n      let memPtr := mload(64)\n\n      mstore(memPtr, 0x1901000000000000000000000000000000000000000000000000000000000000)  // EIP191 header\n      mstore(add(memPtr, 1), eip712DomainHash)                                            // EIP712 domain hash\n      mstore(add(memPtr, 34), hashStruct)                                                 // Hash of struct\n\n      // Compute hash\n      result := keccak256(memPtr, 66)\n    }\n    return result;\n  }\n}\n\n/*\n  Copyright 2018 ZeroEx Intl.\n  Licensed under the Apache License, Version 2.0 (the \"License\");\n  you may not use this file except in compliance with the License.\n  You may obtain a copy of the License at\n    http://www.apache.org/licenses/LICENSE-2.0\n  Unless required by applicable law or agreed to in writing, software\n  distributed under the License is distributed on an \"AS IS\" BASIS,\n  WITHOUT WARRANTIES OR CONDITIONS OF ANY KIND, either express or implied.\n  See the License for the specific language governing permissions and\n  limitations under the License.\n*/",
  "sourcePath": "/home/harry/Code/EIP712-Library/contracts/EIP712Sig.sol",
  "compiler": {
    "name": "solc",
    "version": "0.5.0+commit.1d4f565a.Emscripten.clang"
  },
  "schemaVersion": "3.0.0-beta.2",
  "updatedAt": "2018-11-30T10:15:13.770Z",
  "devdoc": {
    "methods": {}
  },
  "userdoc": {
    "methods": {}
  }
}